{
  "_format": "hh-sol-artifact-1",
  "contractName": "AidFlow",
  "sourceName": "contracts/AidFlow.sol",
  "abi": [
    {
      "inputs": [
        {
          "internalType": "uint256",
          "name": "_minValue",
          "type": "uint256"
        },
        {
          "internalType": "uint256",
          "name": "_prizeIndex",
          "type": "uint256"
        },
        {
          "internalType": "contract ERC20Votes",
          "name": "_aidToken",
          "type": "address"
        },
        {
          "internalType": "uint256",
          "name": "_supportAmount",
          "type": "uint256"
        }
      ],
      "stateMutability": "nonpayable",
      "type": "constructor"
    },
    {
      "anonymous": false,
      "inputs": [
        {
          "indexed": true,
          "internalType": "address",
          "name": "previousOwner",
          "type": "address"
        },
        {
          "indexed": true,
          "internalType": "address",
          "name": "newOwner",
          "type": "address"
        }
      ],
      "name": "OwnershipTransferred",
      "type": "event"
    },
    {
      "inputs": [],
      "name": "donate",
      "outputs": [],
      "stateMutability": "payable",
      "type": "function"
    },
    {
      "inputs": [],
      "name": "getBalance",
      "outputs": [
        {
          "internalType": "uint256",
          "name": "",
          "type": "uint256"
        }
      ],
      "stateMutability": "view",
      "type": "function"
    },
    {
      "inputs": [],
      "name": "owner",
      "outputs": [
        {
          "internalType": "address",
          "name": "",
          "type": "address"
        }
      ],
      "stateMutability": "view",
      "type": "function"
    },
    {
      "inputs": [],
      "name": "renounceOwnership",
      "outputs": [],
      "stateMutability": "nonpayable",
      "type": "function"
    },
    {
      "inputs": [
        {
          "internalType": "address",
          "name": "newOwner",
          "type": "address"
        }
      ],
      "name": "transferOwnership",
      "outputs": [],
      "stateMutability": "nonpayable",
      "type": "function"
    },
    {
      "inputs": [
        {
          "internalType": "address",
          "name": "addr",
          "type": "address"
        }
      ],
      "name": "withdraw_stake",
      "outputs": [],
      "stateMutability": "nonpayable",
      "type": "function"
    }
  ],
  "bytecode": "0x608060405234801561001057600080fd5b5060405161064938038061064983398101604081905261002f916100bb565b6100383361006b565b600193909355600291909155600380546001600160a01b0319166001600160a01b03909216919091179055600455610107565b600080546001600160a01b038381166001600160a01b0319831681178455604051919092169283917f8be0079c531659141344cd1fd0a4f28419497f9722a3daafe3b4186f6b6457e09190a35050565b600080600080608085870312156100d157600080fd5b84516020860151604087015191955093506001600160a01b03811681146100f757600080fd5b6060959095015193969295505050565b610533806101166000396000f3fe6080604052600436106100555760003560e01c806312065fe01461005a578063715018a61461007a57806378be0ad4146100915780638da5cb5b146100b1578063ed88c68e146100d9578063f2fde38b146100e1575b600080fd5b34801561006657600080fd5b506040514781526020015b60405180910390f35b34801561008657600080fd5b5061008f610101565b005b34801561009d57600080fd5b5061008f6100ac3660046103e3565b610115565b3480156100bd57600080fd5b506000546040516001600160a01b039091168152602001610071565b61008f610158565b3480156100ed57600080fd5b5061008f6100fc3660046103e3565b610266565b6101096102df565b6101136000610339565b565b61011d6102df565b6004546040516001600160a01b0383169180156108fc02916000818181858888f19350505050158015610154573d6000803e3d6000fd5b5050565b600034116101a45760405162461bcd60e51b8152602060048201526014602482015273416d6f756e742063616e2774206265207a65726f60601b60448201526064015b60405180910390fd5b6001543410610245576000600254346101bd9190610413565b60035460405163a9059cbb60e01b8152336004820152602481018390529192506001600160a01b03169063a9059cbb90604401602060405180830381600087803b15801561020a57600080fd5b505af115801561021e573d6000803e3d6000fd5b505050506040513d601f19601f820116820180604052508101906102429190610440565b50505b6101136040518060800160405280604681526020016104b860469139610389565b61026e6102df565b6001600160a01b0381166102d35760405162461bcd60e51b815260206004820152602660248201527f4f776e61626c653a206e6577206f776e657220697320746865207a65726f206160448201526564647265737360d01b606482015260840161019b565b6102dc81610339565b50565b6000546001600160a01b031633146101135760405162461bcd60e51b815260206004820181905260248201527f4f776e61626c653a2063616c6c6572206973206e6f7420746865206f776e6572604482015260640161019b565b600080546001600160a01b038381166001600160a01b0319831681178455604051919092169283917f8be0079c531659141344cd1fd0a4f28419497f9722a3daafe3b4186f6b6457e09190a35050565b6102dc8160405160240161039d9190610462565b60408051601f198184030181529190526020810180516001600160e01b031663104c13eb60e21b17815281516a636f6e736f6c652e6c6f67916000918291845afa505050565b6000602082840312156103f557600080fd5b81356001600160a01b038116811461040c57600080fd5b9392505050565b600081600019048311821515161561043b57634e487b7160e01b600052601160045260246000fd5b500290565b60006020828403121561045257600080fd5b8151801515811461040c57600080fd5b600060208083528351808285015260005b8181101561048f57858101830151858201604001528201610473565b818111156104a1576000604083870101525b50601f01601f191692909201604001939250505056fe596f75206861766520646f6e6174656420746f2041696452656163682e5468616e6b7320666f72207265616368696e67206f757420746f2070656f706c6520696e206e656564a2646970667358221220c62537fa60e788919a888b364cd5d167b68b9089f3d1ac33470d8a9753d66a1d64736f6c63430008090033",
  "linkReferences": {},
  "deployedLinkReferences": {}
}